:1000000004308A005A2C0000FF00030E8301A10077
:100010000A08A0008A010408A2007708A300780853
:10002000A4007908A5007A08A60003170D08031399
:10003000A70003170F080313A80003170C080313E6
:10004000A90003170E080313AA00831383128C3030
:100050008400801E2D288C1A4E2822088400230834
:10006000F7002408F8002508F9002608FA002708F8
:1000700003178D000313280803178F0003132908A3
:1000800003178C0003132A0803178E00031320089C
:100090008A00210E8300FF0E7F0E09008A110A12CA
:1000A00051288C1E51281808AB001A08F800AB1C08
:1000B0005B281812181678088316BB003B080D3C05
:1000C000031D6A2883126E08F100EE010130F00072
:1000D000782883163C3083126E07840083138316BE
:1000E0003B0880008312EE0A6E08313C031CEE01CF
:1000F0008C128A110A122D280C002024541050242E
:1001000041272026CF20491053280001201020101D
:100110002010A029D4275010201020100001CD203D
:100120003A10201020102010201020263A10000035
:1001300020308316B100AD01AE01AF01B001280837
:10014000FA002708F9002608F8002508F700031030
:10015000771CB8282908AD072A0803182A0FAE070C
:100160002B0803182B0FAF072C0803182C0FB00710
:10017000B00CAF0CAE0CAD0CFA0CF90CF80CF70C83
:10018000B10BA728831208008318C928B130840056
:100190008313F701F801F901FA018316B101B201E5
:1001A000B301B40130082F042E042D0403190829CB
:1001B0002030B5000310A90DAA0DAB0DAC0DB10D8B
:1001C000B20DB30DB40D30083402031DF1282F0811
:1001D0003302031DF1282E083202031DF1282D08D9
:1001E0003102031C02292D08B1022E08031C2E0F18
:1001F000B2022F08031C2F0FB3023008031C300F6C
:10020000B4020314F70DF80DF90DFA0DB50BDA2849
:1002100031088000840A32088000840A3308800094
:10022000840A3408800083120800A53084008313F8
:100230000008031928290230F800F701F70B1E29DE
:10024000F80B1D299730F700F70B2429800B1B2989
:10025000080008308316A602031C3A29A630840041
:1002600083130310800C000803193A293829000071
:10027000800B3729831208008316A801A7010630D6
:10028000A6007230A5007E08AC007D08AB007C089B
:10029000AA007B08A900831298207A088316A70079
:1002A0007908A6007808A5007708A400831027081D
:1002B000AC002608AB002508AA002408A900B0015C
:1002C000AF01AE01B430AD008312C4207A088316AA
:1002D000A3007908A2007808A1007708A000F50122
:1002E0007508093C031C9D2973107308870083124D
:1002F000071401308316A5008312152183162108E7
:10030000A400A40AA40303198B29FF30A6008312BA
:100310002921831682292008A6008312292173101F
:100320007308831687008312071012308316A50006
:1003300083121521F50A8316702983120800FE0125
:10034000FD01FC013C30FB003C2108008316A801A4
:10035000A7010630A6007230A5007E08AC007D081B
:10036000AB007C08AA007B08A900831298207A08B9
:100370008316A7007908A6007808A5007708A400CE
:1003800083102708AC002608AB002508AA00240823
:10039000A900B001AF01AE01B430AD008312C4209A
:1003A0007A088316A3007908A2007808A1007708CC
:1003B000A000F5017508093C031C072AF310730817
:1003C00087008312871401308316A500831215213C
:1003D00083162108A400A40AA4030319F529FF30F9
:1003E000A600831229218316EC292008A600831277
:1003F0002921F310730883168700831287101230A7
:100400008316A50083121521F50A8316DA298312B3
:100410000800FE01FD01FC013C30FB00A6210800A4
:10042000731173088316870083120711080083165F
:1004300027181E2A83128813202A831683128817EE
:1004400083168813A718282A831208132A2A8316CA
:1004500083120817831608132719322A8312881269
:10046000342A83168312881683168812A7193C2A09
:10047000831208123E2A8316831208168316081266
:1004800000008312081583160811462A472A831292
:10049000081183160811831208008316A801881713
:1004A00000308312881B01308316A804081700301F
:1004B0008312081B0130F7000310F70D770883162D
:1004C000A804881600308312881A0130F700F70D4F
:1004D000F70DFC30F70577088316A80408160030DE
:1004E0008312081A0130F700F70DF70DF70DF830F9
:1004F000F70577088316A8042808F8008312080077
:10050000831608110810881083120810831608102B
:1005100088170817881608168312881483168810FF
:1005200000008312081583160811000083124D2263
:1005300078088316A700831208118316081100009B
:100540008312081583160811A52A83124D227808F4
:100550008316A60083120811831608118813081346
:1005600088120812270EF700F030F70577082604E6
:10057000F8007808A600A61B882AA408031DC42A30
:1005800083120810C62A83168312081483160810D3
:10059000000083128810831688100000831208114F
:1005A00083160811250EA6000F30A6052608A70001
:1005B00083121722831625080F39A600A70083127D
:1005C000172208002830FB000C30FC000130FD0031
:1005D0000630FE00081183160811831208108316D6
:1005E0000810831288108316881088130813881245
:1005F00008120811081088100F30A5008312152169
:100600000130F5007508033C031C122B03308316E0
:10061000A7008312172205308316A5008312152127
:10062000F50A022B02308316A70083121722053029
:100630008316A50083121521F5017508033C031CE0
:100640002F2B7B307507840083130008F600831678
:10065000A4017608A50083128022F50A1D2B8A11B9
:100660000A12A72C8316210B362B392B4030A200FF
:100670003A2BA20101302002A20722088038A300F1
:10068000A4012308A5008312802208007E08073AEF
:100690000319542B0B3A03195B2B063A0319672BEA
:1006A000023A03196F2B762B01308316A000A100AC
:1006B000831232237D2B8316A4010130A5008312FF
:1006C000802202308316A500831215217D2B013074
:1006D0008316A0000230A100831232237D2B8316E3
:1006E000A4011030A500831280227D2B01308316D7
:1006F000A4007E08A5008312802208000B08FB00DE
:100700008B13831603178C170C1400000000FB1FBB
:100710008E2B831203138B178316031783120C0877
:100720007F390319CC2BFB000D08FC000F08FD00DE
:100730007B08FE00031346237C0803178D007D0809
:100740008F0003130B08FE008B13831603178C17FF
:100750000C1400000000FE1FB22B831203138B1732
:100760008316031783120C0D0E0D7F390319CC2B42
:10077000FB000D08FC000F08FD007B08FE000313C2
:1007800046237C0803178D007D088F008D0A03190E
:100790008F0A03137E2B0317031308007C30031703
:1007A0008D0000308F0003137E237D3003178D00F2
:1007B00000308F0003137E2301308316A000023027
:1007C000A10083123223EF08031DEE2B863003179E
:1007D0008D0000308F0003137E23F52B8F3003171D
:1007E0008D0000308F0003137E23080073117308FF
:1007F00083168700831207158A110A12BD2C013057
:10080000F500F601710876020318162C3C307607C5
:10081000840083130008FB002C30760784008313C8
:1008200000087B02031DF501F60A022C750B1B2C38
:100830000130F2003A2C0230F500F6017108760220
:100840000318322C3C307607840083130008FB0029
:10085000343076078400831300087B02031DF50102
:10086000F60A1E2C7508023C031D392C0230F200DA
:100870003A2CF2018A110A12DF2C10308316A000E4
:100880000230A1008312322330307507F600FE00DB
:1008900046230800FE01FD01FC01FB013C218A11F9
:1008A0000A12E52CFE01FD01FC01FB01A6218A11C3
:1008B0000A12FE2C03081F398300AB010C3083168B
:1008C0009900A2309800903083129800EE01EF0159
:1008D000F001F101F201FF30F30083161F149F14A1
:1008E0001F159F1107309C00831331308312AC0019
:1008F000AD00AE00AF00B000B100B200B3003230C6
:10090000B400B500B600B700B800B900BA00BB002B
:10091000003083168800FF30860080308700F300A7
:100920008C16C03083128B047310730883168700F3
:1009300083120710F3107308831687008312871041
:100940008316811383129F2109221022E22ACE23CB
:100950008316061483120618C42CFA308316A500D9
:1009600083121521831606148312061CB22CEF087D
:10097000031DC02C0130EF00F62BCE23EE01C42C5A
:10098000EF011022CE23EE01700B1B2D6F0B192DE2
:1009900004308316A0000230A10083123223F40138
:1009A000710874020318DE2C3C3074078400831332
:1009B0000008F500FE004623F40AD02CFF2B720B32
:1009C000F62C0130F5003D244A2C83168614831240
:1009D0008618E52C1030F500FA308316A500831236
:1009E0001521F50BEC2C9F21CE23192D7208023C0A
:1009F000031D0F2D0230F5003D24522C83160615E1
:100A000083120619FE2C1030F500FA308316A5006B
:100A100083121521F50B052D0922CE23192D043043
:100A2000F500FA308316A50083121521F50B112D60
:0A0A3000CE23EE01F001A82C6300B4
:02400E00723FFF
:00000001FF
;PIC16F877A
;CRC=7158  CREATED="07-Apr-23 23:02"
